{"abi":[{"type":"constructor","inputs":[],"stateMutability":"nonpayable"},{"type":"function","name":"createPresale","inputs":[],"outputs":[{"name":"","type":"address","internalType":"contract Presale"}],"stateMutability":"nonpayable"},{"type":"function","name":"getPresaleAtIndex","inputs":[{"name":"_index","type":"uint256","internalType":"uint256"}],"outputs":[{"name":"","type":"address","internalType":"address"}],"stateMutability":"view"},{"type":"function","name":"isPresale","inputs":[{"name":"_presale","type":"address","internalType":"address"}],"outputs":[{"name":"","type":"bool","internalType":"bool"}],"stateMutability":"view"},{"type":"function","name":"presalesLength","inputs":[],"outputs":[{"name":"","type":"uint256","internalType":"uint256"}],"stateMutability":"view"},{"type":"event","name":"PresaleCreated","inputs":[{"name":"presale","type":"address","indexed":true,"internalType":"address"},{"name":"owner","type":"address","indexed":true,"internalType":"address"}],"anonymous":false},{"type":"error","name":"ERC1167FailedCreateClone","inputs":[]}],"bytecode":{"object":"0x608060405234801561001057600080fd5b5060405161001d9061005f565b604051809103906000f080158015610039573d6000803e3d6000fd5b50600080546001600160a01b0319166001600160a01b039290921691909117905561006c565b6104e5806103f783390190565b61037c8061007b6000396000f3fe608060405234801561001057600080fd5b506004361061004c5760003560e01c80634e76edbb146100515780639bcadc141461006c578063afbf80be1461008f578063cb930983146100af575b600080fd5b6100596100c2565b6040519081526020015b60405180910390f35b61007f61007a3660046102ee565b6100d3565b6040519015158152602001610063565b6100976100e6565b6040516001600160a01b039091168152602001610063565b6100976100bd366004610317565b6101a6565b60006100ce60016101b3565b905090565b60006100e06001836101bd565b92915050565b6000805481906100fe906001600160a01b03166101e2565b905061010b600182610254565b5060405163485cc95560e01b81523360048201523060248201526001600160a01b0382169063485cc95590604401600060405180830381600087803b15801561015357600080fd5b505af1158015610167573d6000803e3d6000fd5b50506040513392506001600160a01b03841691507fcfea6066a7ff70439f7cfe020aea9709cf4b7cb462225660895dfcc5c38716ae90600090a3919050565b60006100e0600183610269565b60006100e0825490565b6001600160a01b038116600090815260018301602052604081205415155b9392505050565b6000763d602d80600a3d3981f3363d3d373d3d3d363d730000008260601b60e81c176000526e5af43d82803e903d91602b57fd5bf38260781b17602052603760096000f090506001600160a01b03811661024f576040516330be1a3d60e21b815260040160405180910390fd5b919050565b60006101db836001600160a01b038416610275565b60006101db83836102c4565b60008181526001830160205260408120546102bc575081546001818101845560008481526020808220909301849055845484825282860190935260409020919091556100e0565b5060006100e0565b60008260000182815481106102db576102db610330565b9060005260206000200154905092915050565b60006020828403121561030057600080fd5b81356001600160a01b03811681146101db57600080fd5b60006020828403121561032957600080fd5b5035919050565b634e487b7160e01b600052603260045260246000fdfea26469706673582212207d490148aa715cf9d2ff9cb7b8780c605457d06539af01ef64b2e80e2ee1331864736f6c63430008140033608060405234801561001057600080fd5b5061001961001e565b6100d0565b7ff0c57e16840df040f15088dc2f81fe391c3923bec73e23a9662efc9c229c6a00805468010000000000000000900460ff161561006e5760405163f92ee8a960e01b815260040160405180910390fd5b80546001600160401b03908116146100cd5780546001600160401b0319166001600160401b0390811782556040519081527fc7f505b2f371ae2175ee4913f4499e1f2633a7b5936321eed1cdaeb6115181d29060200160405180910390a15b50565b610406806100df6000396000f3fe608060405234801561001057600080fd5b506004361061004c5760003560e01c8063485cc95514610051578063715018a6146100665780638da5cb5b1461006e578063f2fde38b146100ac575b600080fd5b61006461005f36600461037b565b6100bf565b005b6100646101eb565b7f9016d09d72d40fdae2fd8ceac6b6234c7706214fd39c1cd1e609a0528c19930054604080516001600160a01b039092168252519081900360200190f35b6100646100ba3660046103ae565b6101ff565b7ff0c57e16840df040f15088dc2f81fe391c3923bec73e23a9662efc9c229c6a008054600160401b810460ff16159067ffffffffffffffff166000811580156101055750825b905060008267ffffffffffffffff1660011480156101225750303b155b905081158015610130575080155b1561014e5760405163f92ee8a960e01b815260040160405180910390fd5b845467ffffffffffffffff19166001178555831561017857845460ff60401b1916600160401b1785555b600080546001600160a01b0319166001600160a01b03881617905561019c87610242565b83156101e257845460ff60401b19168555604051600181527fc7f505b2f371ae2175ee4913f4499e1f2633a7b5936321eed1cdaeb6115181d29060200160405180910390a15b50505050505050565b6101f361024a565b6101fd60006102a5565b565b61020761024a565b6001600160a01b03811661023657604051631e4fbdf760e01b8152600060048201526024015b60405180910390fd5b61023f816102a5565b50565b610207610316565b3361027c7f9016d09d72d40fdae2fd8ceac6b6234c7706214fd39c1cd1e609a0528c199300546001600160a01b031690565b6001600160a01b0316146101fd5760405163118cdaa760e01b815233600482015260240161022d565b7f9016d09d72d40fdae2fd8ceac6b6234c7706214fd39c1cd1e609a0528c19930080546001600160a01b031981166001600160a01b03848116918217845560405192169182907f8be0079c531659141344cd1fd0a4f28419497f9722a3daafe3b4186f6b6457e090600090a3505050565b7ff0c57e16840df040f15088dc2f81fe391c3923bec73e23a9662efc9c229c6a0054600160401b900460ff166101fd57604051631afcd79f60e31b815260040160405180910390fd5b80356001600160a01b038116811461037657600080fd5b919050565b6000806040838503121561038e57600080fd5b6103978361035f565b91506103a56020840161035f565b90509250929050565b6000602082840312156103c057600080fd5b6103c98261035f565b939250505056fea2646970667358221220ac91a46d92df3661b46bea95338dedaf06f2f7448a4d1845064da7d38b1f930664736f6c63430008140033","linkReferences":{}},"methodIdentifiers":{"createPresale()":"afbf80be","getPresaleAtIndex(uint256)":"cb930983","isPresale(address)":"9bcadc14","presalesLength()":"4e76edbb"},"id":31}